:020000040800F2
:10000000643A0020A9010008992F0008912F0008E8
:10001000952F0008E5020008254D000800000000AB
:10002000000000000000000000000000AD2F0008EC
:100030004904000800000000A92F000885350008C9
:10004000C3010008C3010008C3010008C301000880
:10005000C3010008C3010008C3010008C301000870
:10006000C3010008C3010008C3010008C301000860
:10007000C3010008C3010008C3010008C301000850
:100080003D040008C3010008C3010008000000008F
:10009000000000000000000000000000C301000894
:1000A000C3010008C3010008C3010008C301000820
:1000B000C3010008C3010008C3010008C301000810
:1000C000C3010008C3010008C3010008C301000800
:1000D000C3010008C3010008353B00080000000010
:1000E000C3010008C3010008C301000800000000AC
:1000F000000000000000000000000000C301000834
:1001000000000000C3010008C3010008C30100088B
:1001100000000000000000000000000000000000DF
:10012000C3010008C3010008C3010008C30100089F
:10013000C3010008000000000000000000000000F3
:100140000000000000000000000000009D2F0008DB
:10015000C3010008C3010008C3010008C30100086F
:10016000C3010008C30100080000000000000000F7
:10017000000000000000000000000000000000007F
:1001800000000000C30100080000000000000000A3
:10019000C3010008DFF80CD000F08CF800480047DD
:1001A000FD550008643A002006488047064800478D
:1001B000FEE7FEE7FEE7FEE7FEE7FEE7FEE7FEE717
:1001C000FEE7FEE731360008950100082DE9F05FF3
:1001D0000546002092469B468846064681464024B6
:1001E0001BE0284641464746224600F053F8534656
:1001F0005A46C01A914110D311461846224600F0C3
:100200003AF82D1A67EB01084F46224601200021DB
:1002100000F031F817EB00094E41201EA4F1010453
:10022000DFDC484631462A464346BDE8F09F40EAB7
:1002300001039B0703D009E008C9121F08C0042A64
:10024000FAD203E011F8013B00F8013B521EF9D24B
:100250007047D2B201E000F8012B491EFBD2704773
:100260000022F6E710B513460A4604461946FFF782
:10027000F0FF204610BD202A04DB203A00FA02F1EC
:10028000002070479140C2F1200320FA03F3194384
:1002900090407047202A04DB203A21FA02F0002126
:1002A000704721FA02F3D040C2F120029140084386
:1002B000194670471CB50948009009480190054649
:1002C000009C06E0E06840F0010394E807009847CE
:1002D0001034AC42F6D3FFF761FF0000186100084C
:1002E00038610008FEE700004FF6FE7C0129C0F2ED
:1002F000010C53DB10B500EB010E0138002141F277
:10030000210300BF10F8012F0CEA410444EAD21483
:10031000090448BF5C40C2F3801141EA440124044F
:1003200048BF5940C2F3401444EA4104090448BF9D
:100330005C40C2F3001141EA4401240448BF594023
:10034000C2F3C00444EA4104090448BF5C40C2F35C
:10035000800141EA4401240448BF5940C2F34004EB
:1003600044EA4104090448BF5C4002F00101220450
:1003700041EA440100F1010248BF59407245C1D32E
:1003800088B20021B1EBD03FBDE810400EBF410064
:1003900041F2210181EA400101E000BF002141F268
:1003A000210080EA41020B0458BF4A0080EA420162
:1003B000130458BF510080EA41020B0458BF4A00A1
:1003C00080EA4201130458BF510080EA41020B0445
:1003D00058BF4A0080EA4201130458BF510080EA26
:1003E00041020B0458BF4A000CEA4201120448BF04
:1003F000414080EA41020B0458BF4A0080EA4201B2
:10040000130458BF510080EA41020B0458BF4A0050
:1004100080EA4201130458BF510080EA41020B04F4
:1004200058BF4A0080EA4201130458BF510080EAD5
:1004300041000A0458BF480080B2704740F2904023
:10044000C2F2000000F034B97047000072B600BF7D
:10045000FEE70000F0B581B040F61C27044643F6E5
:100460000C46C2F200070020C4F20206F86100F058
:1004700043FE3168C9031DD43068C0071CBF01208A
:100480003060306810F4F97F30D03068C00635D461
:10049000306880063BD43068400641D4306800069E
:1004A00047D43068C0054DD43068800754D401204B
:1004B00001B0F0BDF4B10546601C0DD13068C00339
:1004C000DAD53068C00344BF30685FEAC030D3D5A6
:1004D0003068C003F2D4CFE700F00EFE401BA0420C
:1004E00008D83068C003F7D4C6E700BF002001B0C9
:1004F000F0BD00BF032001B0F0BD00BFF86940F0BF
:100500001000F8611020306030688006C3D5F869AB
:1005100040F00800F8612020306030684006BDD50A
:10052000F86940F00400F86140203060306800064F
:10053000B7D5F86940F00200F8618020306030687B
:10054000C005B1D5F86940F00100F8614FF4807042
:10055000306030688007AAD5F86940F02000F86163
:1005600002203060012001B0F0BD000070B5866D42
:10057000044600F0C1FD94F83510022928D1054643
:100580002068216C026822F016020260426922F0A3
:100590008002426109B9A16C19B1016821F008011A
:1005A0000160016821F00101016000BF206800685E
:1005B000C00715D000F0A0FD401B0628F6D3202070
:1005C0006065032084F83500002184F8341070BD84
:1005D000802060650120002184F8341070BD00BFC8
:1005E000E06D3F2101FA00F0B060012084F8350091
:1005F0000020002184F8341070BD000090F8351000
:10060000022909D1052180F835100068016821F020
:100610000101016000207047802141650120704781
:10062000002804BF0120704790F83510022904BF4C
:1006300002207047B0B502684AF6AB2102F0F80319
:10064000D2F800C0A3F11005CAF6AA21A5FB011E2D
:100650002CF0010111600021212311605160916093
:10066000D1601161536146F2B8034FEA1E1CC0F617
:10067000000313F80C3040F2FF34A2435F2D4FF01B
:100680003F0588BF0432C0E9162305FA03F3C0E929
:100690000F11C0E91111C0E913119360416580F891
:1006A000351080F83410BDE8B040084670470000AF
:1006B000F0B581B004460020009040F20C00C2F278
:1006C00000000268D4E9166048F2B51337680821C3
:1006D000C1F64E3381403942A2FB03250CD022687B
:1006E00013685B0708D5136823F004031360B16037
:1006F000616D41F00101616501218140394208D0FD
:1007000022685269120604D5B160616D41F00201A0
:10071000616504218140394208D02268126892073D
:1007200004D5B160616D41F0040161651021814023
:10073000394217D020680268120713D5B1600268E9
:100740000168520308D4C90508D4016821F00801E2
:100750000160216C21B905E008033FD4216C09B187
:1007600020468847E16D202000FA01F23A4241D04C
:1007700020680368DB063DD5B26094F83530026826
:10078000052B1BD122F016020260426922F0800282
:100790004261226C0AB9A26C1AB1026822F0080206
:1007A00002603F208840B060012084F83500216D50
:1007B0000020002984F8340052D157E00168520328
:1007C00010D4C90512D4016821F010010160012084
:1007D00084F83500002084F8340007E0A16C00297B
:1007E000BED1BFE7080301D4616C00E0E16B09B141
:1007F00020468847606DC8B3606DC0072ED00520C5
:1008000084F835002068A90A026822F0010202601B
:10081000009A01328A4200921AD80268D20717D091
:10082000009A01328A42009212D80268D2070FD091
:10083000009A01328A4200920AD80268D20707D091
:10084000009A01328A42009202D80268D207DFD1B0
:10085000012084F83500002084F83400E16C29B1CF
:10086000204601B0BDE8F040084700BF01B0F0BD30
:100870002DE9F041044600F03FFCECB105460220B2
:1008800084F835000020216884F83400086820F0DE
:100890000100086021680868C00711D000F02CFC36
:1008A000401B0528F6D9032520230320636584F81F
:1008B0003550BDE8F08100BF0120BDE8F08100BFE8
:1008C000086848F23F02CFF21002D4E9013500EA8D
:1008D000020C04F10C0898E8C10143EA0C032B4315
:1008E0001843D4E9072E304338431043626A40EA84
:1008F0000E00042A40EA08031CD1206BD4E90A2E1A
:1009000040EA0E00184308604869BEF1000F20F06D
:10091000030040EA020040F0040C11D0B8F5005F7B
:1009200036D0B8F1000F45D1022A46D0012A3BD07B
:1009300032B942E00B60486920F0070040EA020C3F
:1009400001F0F8004AF6AB221038CAF6AA22A0FB42
:1009500002231A0946F2B803C1F814C0C0F6000316
:100960009A5C40F2FF335F284FF03F0021EA030119
:1009700000FA02F088BF0431C4E91612886000232F
:1009800001250020636584F83550BDE8F08100BF83
:10099000032AD5D8012540230120DFE802F0030E09
:1009A000030500BF82E700BFAEF1C070B0FA80F06F
:1009B000400904E0032A04D3C2D1CEF3006000282A
:1009C000BED0012540230120636584F83550BDE881
:1009D000F081000090F834C0BCF1010F04BF022088
:1009E000704770B54FF0010C80F834C0D0F858E073
:1009F00090F835C0BCF1010F38D14FF0020C80F8EF
:100A000035C04FF0000CC0F854C0D0F800C0846866
:100A1000056CC06DDCF80060402C26F48026CCF814
:100A20000060CCF804300B4604BF13460A463F2151
:100A300001FA00F0CCF80830CCF80C20CEF8080011
:100A4000DCF8000040F01600CCF800002DB1DCF816
:100A5000000040F00800CCF80000DCF8000040F096
:100A60000100CCF80000002070BD00BF002180F81C
:100A70003410022070BD0000B0B5044600F03CFB0D
:100A8000054640F20400C2F200000078611C18BF65
:100A9000044400BF00F030FB401BA042FAD3B0BDBD
:100AA0002DE9F04381B040F61C28C2F2000898F806
:100AB0001820012A04D1022001B0BDE8F08300BF54
:100AC0000546012088F818004CF250308946FFF79F
:100AD000C1FC28B1002188F8181001B0BDE8F083EE
:100AE0004FF0FF30C9F80000286843F6104701288E
:100AF000C4F202071CD128693968000221F4407150
:100B00003960396880B241F00401396039680843BE
:100B100040F4803038604CF25030FFF79BFC39686D
:100B200021F00401396057F8101C89053BD452E0CC
:100B3000D5E902603044864230D2F000841C00BF08
:100B400028694FF44072C1B2032939684FEA002086
:100B500021F440713960396838BF82B241EA02003D
:100B60003860386820F0F800386038682043386012
:100B7000386840F4803038604CF25030FFF76AFC3F
:100B80003968002821F0FA01396047D1D5E902011E
:100B900001360844864204F10804D1D3002057F8F6
:100BA000101C890517D557F8101C21F4007147F85F
:100BB000101C57F8101C41F4006147F8101C57F83E
:100BC000101C21F4006147F8101C57F8101C41F468
:100BD000007147F8101C57F8101C49057FF57AAFD3
:100BE00057F8101C21F4806147F8101C57F8101CAE
:100BF00041F4805147F8101C57F8101C21F4805123
:100C000047F8101C57F8101C41F4806147F8101C7D
:100C1000002188F8181001B0BDE8F083C9F8006021
:100C200057F8101C8905BED4D5E7000043F61041E3
:100C3000C4F20201086840F0004200200A607047D8
:100C40002DE9F04381B040F61C24C2F20004904626
:100C5000227E012A04D1022001B0BDE8F08300BF4A
:100C60000746012020764CF250301E460D46FFF715
:100C7000F1FB28B10021217601B0BDE8F08300BF6F
:100C800043F61049022FC4F2020917D0012F2BD0CE
:100C9000002F3FD1D9F8000020F44070C9F80000BF
:100CA000D9F80000C9F80000D9F8000040F00100B0
:100CB000C9F8000085F8008043E000BFD9F80000C3
:100CC00020F44070C9F80000D9F8000040F400702A
:100CD000C9F80000D9F8000040F00100C9F8000090
:100CE000C5F800802DE000BFD9F8000020F4407066
:100CF000C9F80000D9F8000040F48070C9F800007D
:100D0000D9F8000040F00100C9F80000A5F8008003
:100D100017E000BFD9F8000020F44070C9F80000C7
:100D2000D9F8000040F44070C9F80000D9F800007C
:100D300040F00100C9F80000C5F80080BFF36F8FD4
:100D40006E604CF25030FFF785FBD9F8001021F0AF
:100D50000101C9F800100021217601B0BDE8F0833F
:100D600043F60440C4F20200C168B1F1FF3FC4BFC2
:100D70000020704740F22311C4F26751016048F629
:100D8000AB11CCF6EF510160C068C00F7047000096
:100D90002DE9F04F83B000F13E4202F1FF7283056E
:100DA00043EA922241F200038946C4F2020307217A
:100DB00043F6004A984208BF0421C4F2010A042AFB
:100DC00038BF11460027042202240291CDF800907A
:100DD00025E000BF01680323A3406FF0030599439A
:100DE00005EA57050160054402F01C012E6A0F2731
:100DF00007FA01F126EA01012962C1689943C1603D
:100E0000416821EA0E0141608168994381600CF1DB
:100E100001070832102F04F1040400F09980012129
:100E200001FA07FE1EEA090858D0AAF57E7C27F0D1
:100E30000303111F55465CF803A0019101F0080B54
:100E40000F2101FA0BF902990AEA090601FA0BF3DC
:100E5000AA469E4220D1DAF8003043F60C4523EA38
:100E60000803CAF80030DAF80430C4F2010523EAB6
:100E70000803CAF804302B68BE0823EA08032B6075
:100E8000DAF8083023EA0803CAF808305CF826309C
:100E900023EA09034CF82630A31E0668032101FA51
:100EA00003F39E43066001990F2601F0180C6FF0C2
:100EB000030101EA570101440D6A06FA0CF625EA1E
:100EC00006060E62C1689943C160416821EA0E01BD
:100ED0004160816899438160DDF8009007F1010C61
:100EE000012101FA0CFE1EEA090590D0AAF57E73D5
:100EF00027F00301595802F00C064FF00F08DDF8F7
:100F000008B008FA06F801EA08010BFA06F6B14241
:100F10007FF460AFDAF8001043F60C46A943CAF834
:100F20000010DAF80410C4F20106A943CAF804104C
:100F30003168A9433160DAF80810BE08A943CAF83D
:100F4000081053F8261021EA080143F8261041E75B
:100F500003B0BDE8F08F00002DE9F04F82B000F142
:100F60003E4707F1FF77860546EA972741F20006DC
:100F7000C4F20206072243F6004EB04208BF042224
:100F8000C4F2010E042F38BF3A46002600274FF066
:100F90000008009209E000BF08F101080237B8F12B
:100FA000100F06F1040600F0A3800D68012202FA7A
:100FB00008F415EA0409EFD0D1F804B003220BF0CD
:100FC000030CACF10105BA40012D6FEA020A0FD8FB
:100FD0008268CD6802EA0A02BD402A438260426804
:100FE000A243CBF3001404FA08F42243426005E064
:100FF000BCF1030F02D14FF0030C1EE0C2688C68F5
:1010000002EA0A02BC402243BCF1020FC26014D1C2
:101010006FF0030202EA58020244D2F820C006F040
:101020001C040F230D69A3402CEA0303A5402B43A6
:101030001362D1F804B00BF0030C02680CFA07F34A
:1010400002EA0A021A431BF4403F0260A4D00022C5
:1010500043F644030192C4F202031A684FF6084CA7
:1010600042F480421A601A68CFF6FF7C02F4804294
:101070000192019A28F00302724452F80C3006F0F3
:101080000C050F24AC40A343009C04FA05F52B4348
:1010900042F80C30DEF808204B6842EA090543F6B6
:1010A0000C4CDC0258BF22EA0905CEF80850C4F205
:1010B000010CDCF800209C0242EA090558BF22EA34
:1010C0000905CCF80050DEF804209C0342EA09052B
:1010D00058BF22EA0905CEF80450DEF80020DB03F1
:1010E00042EA090558BF22EA0905CEF8005053E745
:1010F00002B0BDE8F08F000042F63C20C2F20000D2
:101100000068704740F2040042F63C21C2F2000041
:10111000C2F2000100780A681044086070470000BD
:1011200080B543F60040C4F20200016841F400714A
:101130000160016841F480610160016841F48071DF
:101140000160032000F09CF80F2000F005F800F08B
:1011500027F8002080BD000070B540F20406C2F2FE
:10116000000640F20C013278C2F200014FF47A73AB
:101170000968B3FBF2F20446B1FBF2F1084601F054
:101180000DFA0F2C4FF0010508D838B94FF0FF3099
:1011900021460022002500F047F87460284670BD03
:1011A00082B0002043F640010190C4F202014A6877
:1011B00042F480424A604A6802F480420192019AF5
:1011C0000090086840F080500860086800F0805087
:1011D0000090009802B07047002848BF704700F0A8
:1011E0001F01012202FA01F11C2202EAD0004EF294
:1011F0008012CEF200028150BFF34F8FBFF36F8F8A
:1012000070470000002848BF704700F01F0101220E
:1012100002FA01F11C2202EAD0004EF20012CEF2D4
:10122000000281507047000010B54EF60C5CCEF203
:10123000000CDCF80030C3F3022E8EF00704042CFF
:1012400028BF0424BEF103034FF0FF3E0EFA04F45E
:1012500038BF0023A14399400EFA03F39A43114388
:1012600000F00F0200F160430901043A03F5644302
:101270006244002848BF02F10C03197010BD000041
:101280004EF60C51CEF200010A684FF6FF031A40E9
:1012900060F30A2242F0806040F0FD700860704701
:1012A00070470000D0F8E00402F038BD01EBC10245
:1012B000D0F8E03400EB8200026A184602F096BCD7
:1012C00001EBC102D0F8E03400EB8200D0F86022DC
:1012D000184602F0E7BC0000D0F8E00402F020BDA0
:1012E000B0B50279044601F00F00904284BF01209E
:1012F000B0BD49B2B1F1FF3F0ADD00EBC00104EB24
:10130000810202F51571002382F8553208E000BF12
:1013100000EBC00104EB8102012302F114015375BB
:1013200094F894240025012A8D70087004BF0220CF
:10133000B0BD2068012284F8942403F053F92846B4
:1013400084F89454B0BD000070B5064648B2B0F1C0
:10135000FF3F01F00F0000EBC00107DD06EB810449
:1013600004F51571002584F8555206E006EB810C52
:1013700001240CF114018CF815404D780870002DF3
:101380008A600B7118BF4883022B04BF002048718C
:1013900096F89404012804BF022070BD3068012231
:1013A00086F8942403F09EF8002086F8940470BD1B
:1013B00010B501F00F0404EBC40100EB810E4FF0F7
:1013C000000CCEF868C28EF855C290F806C0CEF870
:1013D0006022CEF86432BCF1010F8EF8544208BF8F
:1013E000CEF8702200680EF51571624603F044F9DC
:1013F000002010BDB0B50446007901F00F0585420C
:1014000084BF0120B0BD48B2B0F1FF3F0ADD01EB5F
:10141000C10004EB800000F51571002280F8552210
:1014200008E000BF05EBC50004EB8000012200F1DD
:101430001401427594F89404012201288A700D70F9
:1014400004BF0220B0BD206884F8942403F0F4F8AF
:1014500025B1002084F89404B0BD00BF2068A179B4
:1014600004F29C4203F090F8002084F89404B0BD8C
:1014700080B501F00F0C0CEBCC0100EB810E714636
:1014800001F814CF4FF0000CC1F814C04FF0010C5C
:1014900081F801C090F806C0CA60BCF1010F0B6171
:1014A00008BFCEF830200068624603F0E5F800205F
:1014B00080BD00002DE9F04F89B0D0F800A00646AD
:1014C000504603F0D3FA18B109B0BDE8F08F00BF61
:1014D000306803F0F9FA0028F6D0DAF80808C0F30B
:1014E0000D213068C6F8D41403F0EEFA01463068D6
:1014F000890703D5416901F0020141610AF50061E4
:10150000049103F0E1FA01463068C90608963BD51C
:10151000816921F010018161DAF82040C4F3434071
:10152000062804F00F0519D0022828D147F6F070DC
:1015300014EA000823D005EBC50006EB8007D7F8B6
:1015400060124FEA18145046224603F0C1FAD7F849
:10155000600200EB1810C7F8600207E006F29C4139
:101560005046082203F0B4FAC4F30A1405EBC50090
:1015700006EB8000D0F868122144C0F86812306889
:10158000816941F01001816103F09EFA000340F18E
:10159000F5800898006803F075FA002800F0EE80E6
:1015A000064608984FF4306400F29C4100F51D781F
:1015B0004FF0000B079119E00AEB04000221816053
:1015C000B80642BF0AEB040020218160B80442BF84
:1015D0000AEB04004FF4005181600BF1010B760817
:1015E00004F1200408F1240800F0C880F007F4D0CA
:1015F00008985FFA8BF90068494603F05DFA0746E0
:10160000C00763D00AEB040001218160089D2868AF
:101610002118036C8A68AD79012D29D1150735D4BD
:10162000950600F1A38012F0280F4FD143F20B056D
:10163000C4F65475AB4202D312F400422FD1D8F84D
:1016400000200969BBF1000F6FF3DF41A2EB01013C
:1016500048F80C1C35D1089BD3F86422002A00F00E
:101660008B80D3F860020844C3F8600229E000BF11
:1016700043F20B05C4F65475FF35AB4216D1100486
:101680000DD4900644BF202088601AE043F20B007E
:10169000C4F65470834219D312F4004016D04FF4AC
:1016A00000408860380713D440E000BFBBF1000F52
:1016B00007D10899D1F8641219B90021079A02F0EC
:1016C00063FF08984946FFF7FBFD00BF38072DD59B
:1016D0000AEB040008218160089843F20B020068BD
:1016E000C4F65472056C2044816895420AD311F403
:1016F000004107D04FF400418160089800F0AAFB38
:1017000009E000BF089800F0A5FB43F20B00C4F607
:10171000547085420AD308988079012806D1089828
:10172000079A0068012102F02FFF00BFF80642BFB0
:101730000AEB040010218160B8077FF541AFDAF8A9
:101740001400000604D50499486840F4806048609D
:1017500018F81D0C01287FF42FAF002008F81D0C8D
:101760000898494600F044FB26E700BF2020886027
:101770003807ADD4DAE700BF01219FE7DDF820B0DC
:10178000CDF80CA0DBF8000003F09EF9400340F117
:10179000D580DBF8000003F06DF9002800F0CE8062
:1017A00082460398012700F510660BF29C40002545
:1017B0000190029606E000BF5FEA5A0A05F10105B2
:1017C00000F0BC805FEACA70F6D0DBF80000E9B236
:1017D000079103F05FF90446C00725D0049A05F08D
:1017E0000F00516B07FA00F021EA0000506306EB8E
:1017F000451087609BF80600012811D105EBC50054
:101800000BEB8000D0E907121144016245B9DBF807
:10181000240028B9DBF80000019A012102F0B4FE8F
:1018200007995846FFF742FD200742BF06EB4510D7
:1018300008218160E00642BF06EB4510102181605F
:10184000600642BF06EB451040218160A00715D518
:101850000398294603F09CF805EBC5000BEB8000CC
:1018600010F8171F012905D100210170079958466A
:1018700000F0BAFA06EB45100221816020069BD5E4
:1018800005EBC5000BEB8002914659F8241FC846B2
:1018900058F8040F81428FD3DBF8006093465BF861
:1018A0001C7F0B1ABB4238BF1F46069606EB45133A
:1018B000D3F818C907F1030E1FFA8CF7B7EB9E0F88
:1018C00028D303F5106102F120070591D9F8001023
:1018D00081421FD9DBF80040089A081AA0423968F3
:1018E000967938BF0446DDE90602A3B2009603F0FC
:1018F000E3F93868D8F800102044386008190599D1
:10190000C8F800008969E21C89B2B1EB920FDDD200
:10191000D9F80010DDF820B0029E012781423FF681
:101920004BAF069A05F00F00D2F8341807FA00F012
:1019300021EA0000C2F834083EE700BFDBF80000EF
:1019400003F0C2F8002825D4DBF80000DDE90389A4
:1019500003F0BAF8000540D4DBF8000003F0B4F857
:10196000C0044BD5D9F80400102120F00100C9F8BB
:101970000400DBF8000003F00BF89BF804000106FC
:1019800000F0F080C1B2042900F003003AD2002137
:101990009FE000BFDDF81090D9F8040020F00100AE
:1019A000C9F804009BF8CC04012807D100208BF86B
:1019B000CC0458460021FFF773FC02E0584600F0C3
:1019C0002DFADBF80000DDF80C80416901F00041E0
:1019D000416103F079F80005BED5D9F80800C007C9
:1019E00002D0584600F03EFADBF80000416901F4ED
:1019F0000061416103F068F8C004B3D4DBF8000073
:101A0000E3E000BF6FF0600202EA411200234FF6EC
:101A10007F37002108EB0306C6F80879D6F800598D
:101A2000803325F40015C6F80059C6F8087BD6F8AF
:101A3000005B9A4225F40015C6F8005BD6F8005BFF
:101A400001F1040145F00065C6F8005BC6F828798D
:101A5000D6F8205925F40015C6F82059C6F8287B79
:101A6000D6F8205B25F40015C6F8205BD6F8205B7D
:101A700045F00065C6F8205BC6F84879D6F84059AD
:101A800025F40015C6F84059C6F8487BD6F8405BE7
:101A900025F40015C6F8405BD6F8405B45F00065BC
:101AA000C6F8405BC6F86879D6F8605925F4001589
:101AB000C6F86059C6F8687BD6F8605B25F4001557
:101AC000C6F8605BD6F8605B45F00065C6F8605B01
:101AD000A0D1002846D008F5106202EB41134FF662
:101AE0007F374E019F60955908F5306325F4001546
:101AF000955103EB4115AF609D59012825F4001560
:101B00009D519D5945F000659D512BD04E1C02EB17
:101B100046147501A760545903EB461624F40014CB
:101B20005451B7605F59022827F400175F515F597D
:101B300047F000675F5115D0881C02EB40174FF645
:101B40007F364101BE60575803EB401027F4001761
:101B500057508660585820F400105850585840F09C
:101B600000605850D9F81C0040F00110C9F81C0062
:101B70009BF80F0040B1D9F8840040F00B00C9F881
:101B8000840009F1440008E0D9F8140042F22B0166
:101B90000843C9F8140009F1100001680BF29C42D7
:101BA00041F00B010160D9F8000020F4FE60C9F893
:101BB0000000DBF800009BF8061002F0E5FCDBF803
:101BC0000000416901F48051416102F07DFF01464E
:101BD000DBF8000089041AD502F0C6FCDBF800002F
:101BE00002F036FFDBF800408BF8070000F09AFAAD
:101BF0009BF807200146204602F0D2FF584600F02D
:101C0000FBF8DBF80000416901F40051416102F08A
:101C10005BFF000706D4DBF8000002F055FF00066A
:101C20000DD437E0584600F0FDF8DBF800004169BC
:101C300001F00801416102F047FF00062AD5D8F8FB
:101C4000180020F08000C8F818009BF80400022853
:101C500020D3012440F27B2505E000BF01348442FB
:101C600005F1240516D21BF805100129F6D104F060
:101C70000F0000EBC0000BEB80022006DBF8000039
:101C800002F1140158BF02F5157102F0F9FD9BF83D
:101C90000400E3E7DBF8000002F016FFC00251D4B5
:101CA000DBF8000002F010FF800240F180809BF81A
:101CB000041002292DD308F5326001390BF51F728B
:101CC000012303E0013900F1200022D01746066805
:101CD00012F8245B012DF5D1B6F1FF3FF2DCDBF801
:101CE000D45406F4803605F00105AE42EAD107F877
:101CF000013CD8F8187047F08007C8F81870D8F879
:101D000014703F06DED4D9F8040040F40070C9F81E
:101D10000400DBF80000416901F40011416102F0A8
:101D2000D3FE400049D55846FFF7BCFADBF8000067
:101D3000416901F08041416102F0C6FE40077FF534
:101D4000C3AB41E09BF80400022825D308F51264D8
:101D50000BF13C050126012705E000BF0137874252
:101D600004F1200418D22946226815F8243B012BDF
:101D7000F4D1B2F1FF3FF1DC07F00F0000EBC0003F
:101D800001F8016C0BEB8001DBF80000143102F06C
:101D900077FD9BF80400E1E7DBF80000416901F4FE
:101DA0008011416102F090FE80023FF580AFDBF8C8
:101DB000000002F089FE4000B5D4DBF8000002F01C
:101DC00083FE40077FF580ABDBF8000044686107C5
:101DD00004D55846FFF780FADBF80000416821433C
:101DE000416009B0BDE8F08FD0F8E00401F0BCBF5D
:101DF000D0F8E00401F0CEBF10B50446C079022847
:101E000018BFFEF723FBD4F8E004012102F048F8E4
:101E1000D4F8E004BDE8104001F0F8BFD0F8E004C9
:101E200002F024B8D0F8E00402F02AB810B5044655
:101E300090F89404012804BF022010BD012084F80A
:101E400094046174206802F099FE002084F89404E0
:101E500010BD0000D0F8E02400F29C41104602F0D2
:101E600035B8000010B50446D0F8E00402F072F86E
:101E70002068D0F8001E41F00101C0F8001EE07A91
:101E8000002808BF10BD4EF61050CEF200000168C9
:101E900041F00601016010BD002804BF0120704719
:101EA0002DE9F04143F60808C4F202080446D8F8C8
:101EB000F8030D4600F00700884207D288F8F8536F
:101EC000D8F8F80300F00700A84277D1206881070E
:101ED00017D5410705D5D8F8001041F4E051C8F8EE
:101EE0000010010705D5D8F8001041F46041C8F88A
:101EF0000010D8F80010A26821F0F0011143C8F8D2
:101F00000010C00740D1D8F8F80300F00700A8423D
:101F100007D988F8F853D8F8F80300F00700A8426A
:101F20004CD12068410707D5D8F80010E26821F4A9
:101F3000E0511143C8F80010000708D5D8F8000098
:101F4000216920F4604040EAC100C8F8000000F0B8
:101F500017F9D8F8001046F2A002C1F30311C0F639
:101F60000002515C40F20C0220FA01F140F208003C
:101F7000C2F200000068C2F200021160FFF7ECF844
:101F80000020BDE8F08100BF6068811E022907D2F1
:101F900058F8081C89015CBF0120BDE8F08111E000
:101FA000012807D158F8081C89035CBF0120BDE84F
:101FB000F08107E058F8081C890703D40120BDE828
:101FC000F08100BFD8F8001021F003010843C8F8E1
:101FD0000000FFF791F8064641F28837D8F8000074
:101FE000616800F00C00B0EB810F8CD0FFF784F833
:101FF000801BB842F2D90320BDE8F081F0B581B072
:1020000043F60006C4F20206FFF776F8316804468C
:1020100041F00100306000BF3068800706D4FFF750
:102020006BF8001B0228F7D940E000BF306840F091
:1020300080003060FFF760F80546002041F28837E5
:10204000B06000BFB468FFF757F814F00C0F0446F7
:1020500004D0601BB842F5D928E000BF306820F4F6
:10206000502030603568FFF747F8A903054603D5CF
:10207000281B6428F6D919E0306820F080703060A1
:102080003468FFF739F8A101044603D5601B022824
:10209000F6D90BE0306820F08060306030680001D5
:1020A00008D5FFF729F8001B0228F7D9032001B053
:1020B000F0BD00BF43F21000C0F20040706043F278
:1020C0000000C2F20000C6F88400F06840F20C0183
:1020D00020F4F850F060F06842F2004220F4005022
:1020E000F060F068C2F2000140F41F00F060F06898
:1020F000C0F2F40240F40010F060706F20F00100B4
:102100007067706F40F08070706740F20800C2F234
:10211000000000680A60FFF71FF8002818BF0120C0
:1021200001B0F0BD40F20C00C2F200000068704740
:1021300040F20C0043F60801C2F20000C4F20201B2
:102140000068096846F2B002C1F38221C0F60002BD
:10215000515CC8407047000040F20C0043F6080193
:10216000C2F20000C4F202010068096846F2B0023F
:10217000C1F34231C0F60002515CC8407047000014
:1021800010B543F60404C4F20204606800F00C00C9
:1021900008280BD0042819BF42F20040C0F2F40016
:1021A00043F20060C0F26E1010BD00BF20682168CD
:1021B0002368490243F20061C0F26E1100F03F0251
:1021C000C3F388105CBF42F20041C0F2F401A1FBEE
:1021D00000010023FDF7FAFF21680222C1F301414B
:1021E00002EB4101B0FBF1F010BD0000002804BF7C
:1021F000012070472DE9F04182B00446007843F693
:102200000006C007C4F202060CD0B06800F00C0053
:10221000042840F081803068800303D5606800287E
:1022200000F06A81207880071BD5B06810F00C0F91
:1022300009D0B06800F00C00082840F08780706872
:10224000400200F183803068800703D5E0680128F0
:1022500040F052813068216920F0F80040EAC10066
:1022600030602078000713D4207840072AD4A5696D
:10227000002D00F03C81B06800F00C00082840F010
:10228000A180012D40F01081012002B0BDE8F08155
:102290006069002840F20000C4F2472000F07E8010
:1022A0000121C0F8801EFEF727FF0546706F8007EA
:1022B000DAD4FEF721FF401B0228F7D9032002B031
:1022C000BDE8F081306C5FEAC0080AD400200190BC
:1022D000306C40F080503064306C00F080500190E1
:1022E000019847F20007C4F200073868C00547D4D8
:1022F000386840F480703860FEF7FEFE054600BF87
:102300003868C0053CD4FEF7F7FE401B0228F7D919
:10231000032002B0BDE8F081B06800F00C0008288E
:1023200003D1706840023FF576AF6068B0F5803F3A
:1023300007D0B0F5A02F40F09B80306840F480209B
:102340003060306840F4803030609BE0E068002806
:102350005CD00020C4F2472001210160FEF7CCFED2
:10236000054600BF306880073FF574AFFEF7C4FE36
:10237000401B0228F6D9032002B0BDE8F08100BF5F
:10238000A068012805D0052854D1306F40F0040022
:102390003067306F40F00100306755E00021C0F831
:1023A000801EFEF7A9FE0546706F80077FF55CAFC3
:1023B000FEF7A2FE401B0228F6D9032002B0BDE8BA
:1023C000F08100BF0027C4F2472700203866FEF7DF
:1023D00093FE022D05460DD13068800140F19080BA
:1023E000FEF78AFE401B02284FF00300F4D902B02A
:1023F000BDE8F0813068800179D5FEF77DFE401B95
:1024000002284FF00300F5D9F1E700BF0020C4F225
:10241000472000210160FEF76FFE05463068800707
:102420007FF51FAFFEF768FE401B02284FF0030048
:10243000F4D9DCE7316F002821F001013167316FF9
:1024400021F0040131677DD0FEF756FE054641F2CA
:10245000883700BF306F800700F18680FEF74CFEA2
:10246000401BB842F6D9032002B0BDE8F08100BF9E
:102470003168002821F480313160316821F48021F5
:1024800031607BD0FEF738FE054600BF3068800320
:102490003FF5C8AEFEF730FE401B6428F6D9032096
:1024A00002B0BDE8F08100BF7068E16900F480020D
:1024B0008A4221D1216A00F03F028A421CD147F6AC
:1024C000C071626A0140B1EB821F15D1A16A4FF65B
:1024D000FF73C903994300F44032A1F580318A4269
:1024E0000AD1E16A00F07060B0EB016F04D1002006
:1024F00002B0BDE8F08100BF012002B0BDE8F0816C
:1025000004F11C052FCD084340EA8210D9034FF691
:10251000FF729143A1F5803140EA05600843706085
:1025200001203866FEF7E8FD044600BF30688001F0
:10253000DDD4FEF7E1FD001B02284FF00300F5D9C2
:1025400055E700BFFEF7D8FD054641F2883700BFCA
:10255000306F800708D5FEF7CFFD401BB8424FF023
:102560000300F5D943E700BFB8F1000F3FF57FAE98
:10257000306C20F08050306479E600BFFEF7BCFD7F
:10258000054600BF306880037FF54CAEFEF7B4FD12
:10259000401B64284FF00300F4D928E7411E0020B7
:1025A000B0EB116F1CBF012070474EF21002CEF24B
:1025B000000251604EF62351CEF20001F0230B7061
:1025C000072190601160704770B582B0044690F8A2
:1025D000420020280AD113460A4600294FF0010084
:1025E00018BF002B06D102B070BD00BF022002B0A0
:1025F00070BD00BF2063002622206663A262A3850F
:10260000666484F84200E06B43F2CD7C43F62D15FE
:102610002168C0F6000CC0F60005C0E90FC543F202
:102620005165C0F600050431C0E91356FEF7D2F932
:102630000196206801680191406801900198206925
:1026400030B300BF206850E8030F216840F4807069
:1026500041E80302E2B1206850E8030F216840F42A
:10266000807041E803029AB1206850E8030F2168A6
:1026700040F4807041E8030252B1206850E8030F33
:10268000216840F4807041E80302002ADAD100BFDB
:10269000206850E8050F216840F0010041E805027C
:1026A000BAB3206850E8050F216840F0010041E806
:1026B000050272B3206850E8050F216840F0010060
:1026C00041E805022AB3206850E8050F216840F070
:1026D000010041E80502002ADAD11AE0206850E83A
:1026E000050F216840F0400041E80502DAB120689A
:1026F00050E8050F216840F0400041E8050292B122
:10270000206850E8050F216840F0400041E80502CC
:102710004AB1206850E8050F216840F0400041E8C8
:102720000502002ADAD1206B01282FD10020009069
:10273000206801680091406800900098206850E887
:10274000030F216840F0100041E80302DAB120686D
:1027500050E8030F216840F0100041E8030292B1F5
:10276000206850E8030F216840F0100041E80302A0
:102770004AB1206850E8030F216840F0100041E89A
:102780000302002ADAD1002002B070BD012002B09D
:1027900070BD0000006844F20042C4F200029042A2
:1027A00018BF7047B0B540F2100440F63C25C2F2A5
:1027B0000004C2F200050A462046294603F03CF90F
:1027C00004F1340029464FF48052BDE8B040FFF7D1
:1027D000FBBE0000002804BF0120704710B504466E
:1027E000242084F841002068C16821F40051C160B0
:1027F000204600F0FDFA0020606484F8410084F86F
:1028000042002063606384F8400010BD7047000000
:1028100090F8411090F842000843C0B270470000A1
:10282000B0B582B0044600680168C368426901F02F
:102830002F05202D03F0200506D12DB1204602B032
:10284000BDE8B04001F07EB85FEA017C1EBF02F037
:10285000010E03F4907212EB0E0243D1226BCD06EF
:1028600018D5012A16D113F0100213D000210191BE
:1028700001680191416801910199406940063BD48A
:10288000A08DE18DE28D002A18BF884240F0F281D0
:1028900002B0B0BD0A0640F1E78013F0800200F0FC
:1028A000E38094F841102129F2D1A168B1F5805F4D
:1028B00003D12169002900F06382216A4A1C226247
:1028C00009784160E18C01390A04E184E0D1C168F2
:1028D00021F08001C160C16841F04001C16002B0D7
:1028E000B0BD00BFCA0718BF13F4807240F0D0809B
:1028F0004A0700F1D380D8E0E06B016849688AB2EA
:10290000002AC5D0A38D9A42C2D2E185C069B0F534
:10291000807F00F09D80206850E8030F216820F43C
:10292000807041E80302DAB1206850E8030F2168A3
:1029300020F4807041E8030292B1206850E8030F50
:10294000216820F4807041E803024AB1206850E811
:10295000030F216820F4807041E80302002ADAD1D5
:10296000206850E8050F216820F0010041E80502C9
:10297000BAB3206850E8050F216820F0010041E853
:10298000050272B3206850E8050F216820F00100AD
:1029900041E805022AB3206850E8050F216820F0BD
:1029A000010041E80502002ADAD11AE0206850E867
:1029B000050F216820F0400041E80502DAB12068E7
:1029C00050E8050F216820F0400041E8050292B16F
:1029D000206850E8050F216820F0400041E805021A
:1029E0004AB1206850E8050F216820F0400041E816
:1029F0000502002ADAD1202084F84200002020635A
:102A0000206850E8030F216820F0100041E803021D
:102A1000DAB1206850E8030F216820F0100041E887
:102A2000030292B1206850E8030F216820F01000E3
:102A300041E803024AB1206850E8030F216820F002
:102A4000100041E80302002ADAD1E06BFDF78EFDA9
:102A500002206063A08DE18D401A81B2204602B051
:102A6000BDE8B040FFF796BE49067FF511AF13F001
:102A700040013FF40DAFC16821F04001C160202149
:102A8000204684F8411002B0BDE8B04000F07EBAA4
:102A9000626C42F0010262644A0706D5BEF1000F83
:102AA00003D0626C42F0020262648A0706D5BEF16E
:102AB000000F03D0626C42F004026264BCF1000FAC
:102AC00006D55EEA050203D0626C42F00802626439
:102AD000626C002A3FF4DCAE890604D51DB12046A5
:102AE00000F030FF20684069616C00F0400001F0A8
:102AF0000801401800F0B680206850E8030F2168F4
:102B000020F4907041E80302BAB3206850E8030F44
:102B1000216820F4907041E8030272B3206850E805
:102B2000030F216820F4907041E803022AB3206863
:102B300050E8030F216820F4907041E80302002A56
:102B4000DAD11AE0206850E8050F216820F0010072
:102B500041E80502DAB1206850E8050F216820F04D
:102B6000010041E8050292B1206850E8050F216894
:102B700020F0010041E805024AB1206850E8050F45
:102B8000216820F0010041E80502002ADAD1206B1B
:102B9000012824D1206850E8030F216820F010009C
:102BA00041E80302DAB1206850E8030F216820F001
:102BB000100041E8030292B1206850E8030F216839
:102BC00020F0100041E803024AB1206850E8030FEA
:102BD000216820F0100041E80302002ADAD1202009
:102BE00084F842000020206320684069400640F1DC
:102BF000C180206850E8050F216820F0400041E8BE
:102C00000502DAB1206850E8050F216820F0400085
:102C100041E8050292B1206850E8050F216820F0D4
:102C2000400041E805024AB1206850E8050F2168DC
:102C300020F0400041E80502002ADAD1E06B0028CC
:102C400000F0988043F24561C0F600010165FDF790
:102C5000D5FC00283FF41CAEE06B016D02B0BDE86E
:102C6000B04008472046FFF7D1FD0020606402B065
:102C7000B0BD00BF401A00BF216851E8031F2268A1
:102C800021F4907142E80313BBB3216851E8031F9C
:102C9000226821F4907142E8031373B3216851E86C
:102CA000031F226821F4907142E803132BB32168BB
:102CB00051E8031F226821F4907142E80313002BAE
:102CC000DAD11AE0216851E8051F226821F00101DC
:102CD00042E80513DBB1216851E8051F226821F0A5
:102CE000010142E8051393B1216851E8051F2268EC
:102CF00021F0010142E805134BB1216851E8051F9D
:102D0000226821F0010142E80513002BDAD12021CD
:102D100084F8421000212163216851E8031F2268D2
:102D200021F0100142E80313DBB1216851E8031FD1
:102D3000226821F0100142E8031393B1216851E8A1
:102D4000031F226821F0100142E803134BB12168F0
:102D500051E8031F226821F0100142E80313002B01
:102D6000DAD1022281B22046626302B0BDE8B040EF
:102D7000FFF710BD204602B0BDE8B040FFF746BDEA
:102D8000216A31F8022B6FF35F224260216299E5DC
:102D9000002804BF0120704710B5044690F8410098
:102DA00028B9002084F84000204600F059F824207B
:102DB00084F841002068C16821F40051C1602046B8
:102DC00000F040FE2068016921F4904101614169F1
:102DD00021F02A014161C16841F40051C160002025
:102DE0002021606484F8411084F84210606310BDB3
:102DF00010B50446006844F20041C4F20001884264
:102E000018D041F20001C4F20101884218BF10BD80
:102E100043F64002C4F2020250684FF4C06120F051
:102E200010030020C4F202005360BDE81040FDF71B
:102E3000AFBF00BF43F64000C4F20200016821F4B6
:102E4000003101600020C4F202000C21FDF7A0FF58
:102E5000E06BFDF7E5FB2620BDE81040FEF7BCB9AE
:102E600070B586B00446006844F20041C4F2000127
:102E700000268842CDE90466CDE90266019631D08C
:102E800041F20001C4F20101884278D1002043F6EA
:102E900030010090C4F202014A6942F010024A6116
:102EA0004A6902F010020092009A00900A6842F00B
:102EB00001020A60096801F00101009100994FF4D4
:102EC000C06101910221CDE9021003200490072086
:102ED00005900020C4F2020001A9FEF73DF806B0FB
:102EE00070BD00BF43F630000096C4F202000169D5
:102EF00041F400310161016901F400310091009950
:102F00000096016841F001010160006801A900F02C
:102F10000100009000980C2001900220CDE90206EB
:102F200003200490072005900020C4F20200FEF761
:102F300013F840F2904546F28800C2F20005C4F250
:102F400002004FF000614FF4806285E8430028469C
:102F5000C5E90362C5E90566C5E907666E62FDF766
:102F600087FC002818BFFDF771FA262000210022F7
:102F7000E563AC63FEF758F92620FEF743F906B087
:102F800070BD0000704700007047000070470000EF
:102F9000FEE70000FEE70000FEE7000040F2F04020
:102FA000C2F20000FEF786BA7047000070470000CA
:102FB00010B503786A2B15DC002B00F0C681302B8E
:102FC00018D1427842F02002782A19D18278002A5A
:102FD00000F0D082A2F14103062B80F065806FF0F3
:102FE000360370E06B2B4FF0000201D06D2B01D146
:102FF000104610BDA3F13002092A84BF002010BD85
:1030000090F801E0303BAEF14B02222A1AD8DFE8FB
:1030100002F0131D451D1D1D1D1D1D1D1D1D1D1D0A
:103020001D1D1D1D1D1D1D1D1D1D1D1D1D1D1D1DD0
:103030001D1D131D450000BF9B0201220B601046A1
:1030400010BD00BFBEF1000F00F07F81AEF1300275
:10305000092A00F28F8290F802C003EB83020EEB84
:103060004203ACF14B02222AA3F1300300F260804C
:10307000DFE802F01262146262626262626262629D
:103080006262626262626262626262626262626220
:103090006262626212621400CEE700BF1B05012269
:1030A0000B60104610BD00BFA2F16103062B03D2D6
:1030B0006FF0560307E000BFA2F13003092B00F2C6
:1030C00059826FF02F0390F803C01344BCF1000F36
:1030D00000F03B81ACF14102062A03D26FF0360EBC
:1030E0000FE000BFACF16102062A03D26FF0560E6A
:1030F00007E000BFACF13002092A00F23B826FF01A
:103100002F0E04790EEB0C02002C02EB031300F0DF
:103110001C81A4F14102062A02D26FF0360E3CE077
:10312000A4F16102062A31D26FF0560E35E000BFDD
:10313000BCF1000F00F00981ACF13002092A00F265
:10314000198290F803E003EB83020CEB4203AEF12B
:103150004B02222AA3F1300300F29480DFE802F050
:103160001496129696969696969696969696969605
:1031700096969696969696969696969696969696EF
:10318000149612008AE700BF56E700BFA4F1300290
:10319000092A00F2EF816FF02F0E90F805C00EEBB8
:1031A0000402BCF1000F02EB031300F0CE80ACF17F
:1031B0004102062A02D26FF0360E0EE0ACF1610237
:1031C000062A03D26FF0560E07E000BFACF13002C2
:1031D000092A00F2CF816FF02F0E82790EEB0C04DA
:1031E000002A04EB031300F0B080A2F14104062C86
:1031F00002D26FF0360E0EE0A2F16104062C03D26B
:103200006FF0560E07E000BFA2F13004092C00F267
:10321000B1816FF02F0E90F807C07244BCF1000F1F
:1032200002EB031300F09180ACF14102062A03D2B5
:103230006FF0360E0FE000BFACF16102062A03D238
:103240006FF0560E07E000BFACF13002092A00F221
:1032500091816FF02F0E027A0EEB0C04002A04EB22
:10326000031300F07280A2F14104062C02D26FF029
:10327000360E3CE0A2F16104062C31D26FF0560EFE
:1032800035E000BFBEF1000F00F05F80AEF130020C
:10329000092A00F26F8190F804C003EB83020EEB61
:1032A0004203ACF14B02222AA3F1300300F24A8020
:1032B000DFE802F01450125050505050505050500F
:1032C00050505050505050505050505050505050FE
:1032D0005050505014501200E0E600BFACE600BF62
:1032E000A2F13004092C00F245816FF02F0E90F806
:1032F00009C07244BCF1000F02EB031325D0ACF1FE
:103300004102062A02D26FF036020EE0ACF16102F1
:10331000062A03D26FF0560207E000BFACF130027C
:10332000092A00F227816FF02F02807A00281CBF43
:10333000002010BD02EB0C0000EB031301220B6018
:10334000104610BDBCF1000F04D101220B601046E5
:1033500010BD00BFACF13002092A00F20B8190F8D9
:1033600005E003EB83020CEB4203AEF14B02222A91
:10337000A3F1300318D8DFE802F0151A131A1A1A4D
:103380001A1A1A1A1A1A1A1A1A1A1A1A1A1A1A1A9D
:103390001A1A1A1A1A1A1A1A1A1A151A130000BF28
:1033A0007CE600BF48E600BFBEF1000FCDD0AEF115
:1033B0003002092A00F2DE8090F806C003EB830297
:1033C0000EEB4203ACF14B02222AA3F1300317D8D3
:1033D000DFE802F0141A121A1A1A1A1A1A1A1A1A0A
:1033E0001A1A1A1A1A1A1A1A1A1A1A1A1A1A1A1A3D
:1033F0001A1A1A1A141A120050E600BF1CE600BF6F
:10340000BCF1000F3FF4A1AFACF13002092A00F289
:10341000B18090F807E003EB83020CEB4203AEF1BE
:103420004B02222AA3F1300318D8DFE802F0151B63
:10343000131B1B1B1B1B1B1B1B1B1B1B1B1B1B1BE4
:103440001B1B1B1B1B1B1B1B1B1B1B1B1B1B151BD2
:10345000130000BF22E600BFEEE500BFBEF1000F83
:103460003FF473AFAEF13002092A00F2838090F886
:1034700008C003EB83020EEB4203ACF14B02222A9D
:10348000A3F1300318D8DFE802F0151B131B1B1B38
:103490001B1B1B1B1B1B1B1B1B1B1B1B1B1B1B1B7C
:1034A0001B1B1B1B1B1B1B1B1B1B151B130000BF0C
:1034B000F4E500BFFFF7C0BDBCF1000F3FF445AF1E
:1034C000ACF13002092A00F2558090F809E003EBD4
:1034D00083020CEB4203AEF14B02222AA3F130032C
:1034E00018D8DFE802F0151B131B1B1B1B1B1B1B33
:1034F0001B1B1B1B1B1B1B1B1B1B1B1B1B1B1B1B1C
:103500001B1B1B1B1B1B151B130000BFC6E500BFAD
:10351000FFF792BDBEF1000F3FF417AFAEF13002DE
:10352000092A27D890F80AC003EB83020EEB420267
:10353000ACF14B00A2F1300322284FF000021BD85F
:10354000DFE800F0161412141414141414141414D4
:10355000141414141414141414141414141414142B
:103560001414141416141200FFF798BDFFF740BD91
:10357000FFF762BD002010BDBCF1000F3FF4E5AEC7
:10358000FFF736BDFDF7BEBDB0B592B0002443F6DF
:103590004000CDE90A44CDE908440594CDE903444F
:1035A000CDE901440094C4F202000168022541F013
:1035B00080510160006800F080500090009847F250
:1035C00000000094C4F20000016865F38F310160CF
:1035D000006800F4404000900098012006904FF4ED
:1035E000803007904FF480000D900C200E90A820A2
:1035F0000F90042010900720119006A80C95FEF75C
:10360000F5FD18B172B600BFFEE700BF0F20CDE98F
:1036100001054FF48050CDE9040401A80221039470
:10362000FEF73AFC10B172B6FEE700BF12B0B0BDB3
:103630004EF68850CEF20000016841F4700101603E
:1036400070470000806B0021C185C184FFF7DEB8A0
:10365000806B01684A6990F84130212B2DD112F01E
:1036600080022AD00021C184016851E8031F02684A
:1036700021F0C00142E80313DBB1016851E8031FE8
:10368000026821F0C00142E8031393B1016851E8D8
:10369000031F026821F0C00142E803134BB1016827
:1036A00051E8031F026821F0C00142E80313002B18
:1036B000DAD1202180F841100168496990F8422050
:1036C000222A40F07D8011F0400179D00021C1858F
:1036D000016851E8031F026821F4907142E8031366
:1036E000BBB3016851E8031F026821F4907142E8FE
:1036F000031373B3016851E8031F026821F490714A
:1037000042E803132BB3016851E8031F026821F458
:10371000907142E80313002BDAD11AE0016851E8F6
:10372000051F026821F0010142E80513DBB10168C1
:1037300051E8051F026821F0010142E8051393B129
:10374000016851E8051F026821F0010142E80513F4
:103750004BB1016851E8051F026821F0010142E800
:103760000513002BDAD1016B012924D1016851E83E
:10377000031F026821F0100142E80313DBB1016866
:1037800051E8031F026821F0100142E8031393B1CE
:10379000016851E8031F026821F0100142E8031399
:1037A0004BB1016851E8031F026821F0100142E8A3
:1037B0000313002BDAD1202180F84210002101638D
:1037C000416C41F010014164FFF720B80168806B43
:1037D0000968C90500F19F800021C185016851E891
:1037E000031F026821F4807142E80313E3B101680A
:1037F00051E8031F026821F4807142E803139BB172
:10380000016851E8031F026821F4807142E8031344
:1038100053B1016851E8031F026821F4807142E846
:103820000313002BDAD100BF016851E8051F0268BD
:1038300021F0010142E80513BBB3016851E8051FFF
:10384000026821F0010142E8051373B3016851E8F1
:10385000051F026821F0010142E805132BB301683E
:1038600051E8051F026821F0010142E80513002B11
:10387000DAD11AE0016851E8051F026821F0400121
:1038800042E80513DBB1016851E8051F026821F029
:10389000400142E8051393B1016851E8051F026831
:1038A00021F0400142E805134BB1016851E8051FC2
:1038B000026821F0400142E80513002BDAD12021F3
:1038C00080F84210016B012925D100BF016851E841
:1038D000031F026821F0100142E80313DBB1016805
:1038E00051E8031F026821F0100142E8031393B16D
:1038F000016851E8031F026821F0100142E8031338
:103900004BB1016851E8031F026821F0100142E841
:103910000313002BDAD100214163016B012918BF89
:10392000FFF730BB818DFEF735BF0000806B0121B2
:103930004163016B012918BFFFF726BB818D490840
:10394000FEF728BF81B090F84210222921D1836868
:103950000246B3F5805F09D152F8281F52F8183C8F
:10396000002B63D003685B680AE000BF52F8281F91
:1039700013B90369002BF5D003685B6803F07F037C
:103980000B70116801311160C18D01390A04C185C4
:1039900002D001B0704700BF0168CA6822F020025F
:1039A000CA60CA6822F48072CA604A6922F00102C1
:1039B0004A61202180F8421000214163026B012AF4
:1039C0003CD10163016851E8031F026821F0100136
:1039D00042E80313DBB1016851E8031F026821F0DC
:1039E000100142E8031393B1016851E8031F026814
:1039F00021F0100142E803134BB1016851E8031FA5
:103A0000026821F0100142E80313002BDAD10168AB
:103A10000A68D20606D5002200920A680092496818
:103A200000910099818D01B0FEF7B4BE0268526822
:103A30006FF35F2221F8022B8162A5E701B0FFF747
:103A4000A1BA000010B504460068D4E902C2236997
:103A5000016921F4405111430161626943EA0C019B
:103A6000E3691143C268194349F20C639A43114355
:103A7000C1604169A26921F4407141F200431143E0
:103A800040F48062C4F201039A42416102D1FEF720
:103A900063FB01E0FEF74CFBE16963681922B1F5B5
:103AA000004FA0FB020123D15A00DB0FFCF78EFB75
:103AB00048F21F51C5F2EB11A0FB01235A094FF642
:103AC0009C73C0F6FF7303F1805302FB03003223A3
:103AD00003EBC000A0FB01014FF4F87000EA1110E5
:103AE00000EB0210C1F3421108442168886010BD48
:103AF0009A009B0FFCF76AFB48F21F51C5F2EB11CD
:103B0000A0FB01235A094FF69C73C0F6FF7302FB1A
:103B10000300322303EB0010A0FB0101F02000EAB8
:103B2000511000EB0210C1F3431108442168886072
:103B300010BD000040F24400C2F20000FEF770BE6B
:103B400080B5D0F8B82252689047002818BF0320EB
:103B500080BD0000002070470020704780B51346EC
:103B60000A46002100F040F9002080BD80B51346D0
:103B70000A46002100F0FCF9002080BD80B5052137
:103B8000C0F8941200210022002300F02DF900203B
:103B900080BD000080B513460A460221C0F8941289
:103BA0000021C0E9063300F0E3F9002080BD0000E9
:103BB00080B50421C0F8941200210022002300F0F7
:103BC000D7F9002080BD000080B5D0F8C802FDF70D
:103BD00087FB40F20032C100C0F2013222FA01F14B
:103BE000032888BF0321C8B280BD0000B0B50446D9
:103BF00091B194F89C02032851D1D4F8B8024269DB
:103C0000002A4CD00020C4F8D40220469047002857
:103C100008BF0020B0BD00BFD4F89402022837D1FD
:103C2000D4E9070188420DD9431A204611461A46A5
:103C3000E361FFF79BFF204600210022002300F0F4
:103C4000D3F825E010D1A16981420DD3D4F89802B0
:103C5000814209D22046002100220025FFF786FF7D
:103C6000C4F89852E7E700BF94F89C02032808D1F3
:103C7000D4F8B802C16821B10020C4F8D4022046AB
:103C800088472046802100F053F92046FFF776FF51
:103C900094F8A00200281CBF002084F8A002002095
:103CA000B0BD000010B5044681B194F89C02032811
:103CB0001FD1D4F8B8028269DAB10020C4F8D40266
:103CC00020469047002808BF002010BDD4F8940279
:103CD00003280ED1D4E9570398420DD9C01AC4F86D
:103CE0005C01984238BF0346204611461A46FFF74A
:103CF00035FF002010BD00BF94F89C02032808D1B6
:103D0000D4F8B802016921B10020C4F8D4022046D9
:103D100088472046FFF74CFF002010BD0020704769
:103D2000012180F89C12D0F8B812002904BF0020AD
:103D3000704780B54A6801799047002818BF032072
:103D400080BD00004AB2D0F8C80201F07F0101EB4B
:103D5000C10100EB810000F25621002A48BF00F1AA
:103D60001601087870470000D0F8D42200EB8202D8
:103D7000D2F8B822002A04BF0320704790F89C3282
:103D8000032B05D1126A1AB180B59047002080BD7F
:103D900000207047D0F8D42200EB8202D2F8B8227B
:103DA000002A04BF0320704790F89C32032B05D1F2
:103DB000526A1AB180B59047002080BD002070473C
:103DC00080B59446D0F8C8021A466346FDF7BCFA9F
:103DD00040F20032C100C0F2013222FA01F10328A0
:103DE00088BF0321C8B280BD80B5D0F8C802FDF7F6
:103DF000DFFA40F20032C100C0F2013222FA01F1D2
:103E0000032888BF0321C8B280BD0000F0B581B08F
:103E10000126002580F89C62C0F894520446456053
:103E2000D0F8B802C4F8A45284F8A05240B1426855
:103E300032B12046002190470546002818BF0325CF
:103E400020460021002240234027FFF7B9FF2046EB
:103E5000802100224023A4F86461C4F86071FFF758
:103E6000AFFFA6842846276201B0F0BD90F89C12EF
:103E7000042904BF90F89D1280F89C12002070471E
:103E800090F89C12032908D1D0F8B81229B1C96959
:103E900019B180B58847BDE8804000207047000018
:103EA000024600201174704780B5D0F8C802FDF7B3
:103EB000BDFF40F20032C100C0F2013222FA01F12E
:103EC000032888BF0321C8B280BD0000B0B500F24E
:103ED000AA250446284600F05DF80120C4F89402A3
:103EE00094F8AA02B4F8B02200F01F010229C4F825
:103EF000982209D001290DD091B920462946BDE864
:103F0000B04000F05BB800BF20462946BDE8B04095
:103F100000F0FCB920462946BDE8B04000F0A4BA44
:103F200000F080012046BDE8B04000F001B800007C
:103F300080B5D0F8C802FDF75DFA40F20032C1004A
:103F4000C0F2013222FA01F1032888BF0321C8B26E
:103F500080BD0000014690F89C02042204281CBF8A
:103F600091F89C0281F89D02002081F89C22704704
:103F700080B5D0F8C802FDF77BFA40F20032C100EC
:103F8000C0F2013222FA01F1032888BF0321C8B22E
:103F900080BD00000A7802704A7842704A884280E8
:103FA0008A888280C988C18070470000D0F8B82212
:103FB000002A04BF0020704712681047B0B582B0D5
:103FC0000D460978044611F0600111D0402902D055
:103FD000202940F0D580D4F8D402294604EB800093
:103FE000D0F8B8028268204602B0BDE8B040104761
:103FF0006878092800F2C480DFE800F0061CC230AF
:10400000C26884C23C5200BF94F89C020138022866
:1040100000F2B680E888022840F0B280D4F8A4020A
:104020000322002808BF0122214641F80C2F204618
:10403000022251E194F89C020138022800F2A0808B
:1040400068880025012840F0A480C4F8A4522046C6
:10405000FFF7AEFD284602B0B0BD00BF6888022859
:1040600000F08480012840F08B800120C4F8A40275
:1040700038E100BFE888012840F0828094F89C0273
:10408000411E022980F076800025214641F8085F14
:1040900020460122FFF77EFD284602B0B0BD00BFDA
:1040A000688840F28C45C2F2000510F0FE0F2870BF
:1040B00040D020468021FFF73BFF20460021FFF73C
:1040C00037FF0325284602B0B0BD00BFA8880028EE
:1040D00056D1E888002853D168887F2850D894F8B2
:1040E0009C1203294CD0C5B284F89E022046294672
:1040F000FFF7DAFE2046FFF75BFD002D14BF02201C
:104100000120BFE068884FF0FF3101EB1021002251
:104110000629ADF8062000F2ED80DFE811F0070077
:104120004B003D00EB00EB0059006500D4F8B402F1
:104130000268C1E094F89C22C1B2032A62D0022A2C
:1041400040F08280002900F0CD8020466160FFF7BA
:104150002DFF002800F09280054620468021FFF7C1
:10416000E7FE20460021FFF7E3FE67E0687984F868
:10417000A002B7E0032803D1211D20460122ABE0B5
:1041800020468021FFF7D4FE204600210025FFF7BE
:10419000CFFE284602B0B0BDC0B2052800F2AA800A
:1041A000DFE800F004767A7E828600BFD4F8B4029D
:1041B000426880E0217CD4F8B80200290CBF816AF3
:1041C000C16A0DF1060088470146022018E000BFD1
:1041D000207C002840F08E80D4F8B802416B0DF1AD
:1041E000060088476CE000BF207C002840F08280F9
:1041F000D4F8B802016B0DF106008847014607208C
:1042000048705EE081B3606888426BD0C1B22046DE
:10421000FFF796FC297820466160FFF7C7FE00286B
:1042200060D0054620468021FFF782FE204600210F
:10423000FFF77EFE21792046FFF782FC022084F8FA
:104240009C02284602B0B0BD20468021FFF770FED8
:1042500020460021FFF76CFE29782046FFF770FC0E
:104260000325284602B0B0BD022084F89C0261609C
:10427000204600210025FFF763FCE8E62046FFF713
:1042800097FC032084F89C020025284602B0B0BDAC
:10429000D4F8B40282680EE0D4F8B402C2680AE02E
:1042A000D4F8B402026906E0D4F8B402426902E02C
:1042B000D4F8B4028269EAB1207C0DF1060190477E
:1042C0000146EA8872B1BDF8060098B1904238BF45
:1042D0000246ADF806202046FFF75CFC0025284684
:1042E00002B0B0BD2046FFF763FC0025284602B0AF
:1042F000B0BD00BF20468021FFF71AFE20460021F6
:10430000FFF716FE0025284602B0B0BD70B50E4678
:104310000978357911F0600104460BD0402902D0AC
:10432000202940F07F8020462946FFF713FCD8B1B2
:10433000002070BD707828B301283FD0032871D1C8
:1043400094F89C0203283DD1708840B915F07F0095
:1043500005D0F08818B920462946FFF7E9FD204628
:10436000FFF726FC002070BDD4F8B8028268002058
:10437000002AC4F8D402DBD020463146BDE87040A4
:10438000104700BF94F89C02032829D0022808BFD8
:104390005FEA456046D115F0800004F114014FF04A
:1043A000140004BF4FF4AA7004F5AA710022225031
:1043B00020460222FFF7EEFB002070BD94F89C021D
:1043C000032839D002282DD168062BD02046294653
:1043D000FFF7AEFD20468021FFF7AAFD002070BD4B
:1043E00005F00F0000EB8000802D04EB80002CBF57
:1043F000808CB0F86401A8B105F07F0000EB80006C
:1044000004EB800000F11406802D38BF00F5AA7679
:1044100068061FD020462946FFF794FC002818BFE5
:10442000012018E020468021FFF782FD2046002170
:10443000FFF77EFD002070BD708800287FF478AF04
:10444000680603D020462946FFF7BEFB2046FFF74B
:10445000AFFB68E700203060204631460222FFF7BC
:1044600099FB002070BD0000B0B50D4609780446E8
:1044700011F0600118BF402910D194F89C02013856
:1044800002280DD8A88810F0FE0F09D1C1B220462D
:10449000FFF762FB80B10320B0BD00BF2029ECD044
:1044A00020468021FFF744FD204600210025FFF72C
:1044B0003FFD2846B0BD00BFD4F8B8028268002A8C
:1044C000E9D00020C4F8D402204629469047E98864
:1044D0000546002908BF002DEBD12046FFF768FBF9
:1044E0000020B0BD10B50A784B78D0F81CE802F077
:1044F0000F04012B4FEA421C18D10123A34043EAC9
:104500000E03C0F81C386044D0F800391B0428D4CE
:104510008B6800F51060097904686FF3DF2343EAC4
:10452000814144EA8252114316E000BF4FF48032C9
:10453000A24042EA0E02C0F81C286044D0F8002BCA
:1045400012040ED48A6800F5306009796FF3DF2217
:10455000036842EA8141194341F0805141F400412E
:104560000160002010BD00000146D0F8000940F2B3
:10457000FF729043C1F80009D1F8040840F480723A
:104580000020C1F804287047D0F840C043F20B0364
:10459000C4F654739C4503D3D0F8003B002B1ED4C3
:1045A0000023C0F8103BD0F8103B012943F400234E
:1045B000C0F8103BD0F8103B43F01803C0F8103B94
:1045C000D0F8103B43F0C043C0F8103B07D1C0F80F
:1045D000142BD0F8001B41F08021C0F8001B0020F4
:1045E000704700004A780B78012A4FEA43121044C2
:1045F0000ED1D0F8002922F40012C0F80029097960
:1046000001F0FE01022914D100F510600DE000BF99
:10461000D0F8002B22F40012C0F8002B097901F029
:10462000FE01022905D100F53060016841F080519A
:1046300001600020704700000A784B785101012B7F
:10464000084407D1D0F80019002900F5106107D5FA
:104650000BE000BFD0F8001B002900F5306104D446
:104660001AB1086820F080400860086840F4001221
:1046700000200A6070470000F0B54B7891F800C048
:10468000012B1FD10D6900EB4C1EDEF81049002DE7
:104690000EF510633ED06FF312041C611C69BCF16F
:1046A000000F6FF3DC441C618C6863D02E19013E4F
:1046B000B6FBF4F40027C1F6F8771E6907EAC44494
:1046C0005FE000BF00EB4C13D3F8107BBCF1000F90
:1046D0006FF31207C3F8107BD3F8107B6FF3DC473E
:1046E000C3F8107B8C680E6903F530631ED00EB3DF
:1046F0003719013FB7FBF4F7BEB274430C620026D2
:10470000C1F6F8761D6906EAC7472F436FF3DF4409
:104710001F6116E06FF3DC441C611C69002544F442
:1047200000241C611C696FF312043CE0002E18BFCA
:104730000C610C621F696FF3DF4427431F614FF464
:1047400000241F69012A47EA04071F6103D1CA68D0
:10475000002A18BF5A61097901293AD1D0F808080E
:104760001968C0054FF0805058BF4FF00050084303
:104770002EE000BFA54284BF0C6125461C694FF4A2
:10478000002634431C612C461E696FF3DF4434431A
:104790001C610C79012C07D11C6924F0C0441C61F8
:1047A0001C6944F000541C61012A19D1CA69002A0D
:1047B00018BFCEF81429097901290AD1D0F80818B0
:1047C000DEF80009C9054CBF40F0805040F00050B1
:1047D00018604FF004411868084318600020F0BDCD
:1047E00000F510634FEA4C141F5947F004471F515E
:1047F0000F79012F3AD1D0F80878E658FF054FF02D
:10480000805758BF4FF000573743002AE750E5D193
:10481000AAB2002AE2D0D61C4FF0FF33C96803EBDE
:10482000960300F580504FEA0C32032BC6F3810348
:104830000ED3B70827F003040F68043C17504F68E5
:1048400017508F681750CF6801F110011750F3D13E
:10485000002BC3D00F68012B8750BFD04F68022BAD
:104860008750BBD0896881500020F0BD002DB5D0A5
:104870000CF00F01012202FA01F100F63403AAE75D
:1048800081B0002200924A780978012A4FEA41114A
:104890003AD100F510625058B0F1FF3F3ADC885829
:1048A00042F2107340F000608850885840F0804019
:1048B00088500098013000900098984264D8505871
:1048C000B0F1FF3F26DC009801300090009898423C
:1048D0005AD85058B0F1FF3F1CDC009801300090CE
:1048E0000098984250D85058B0F1FF3F12DC009821
:1048F000013000900098984246D85058B0F1FF3FE0
:104900004FF00000D5DD3CE000F530625058B0F1CA
:10491000FF3F03DD002001B0704700BF885842F21E
:10492000107340F000608850885840F080408850F4
:104930000098013000900098984225D85058B0F166
:10494000FF3FE7DC009801300090009898421BD8A8
:104950005058B0F1FF3FDDDC009801300090009826
:10496000984211D85058B0F1FF3FD3DC0098013085
:1049700000900098984207D8505800284FF0000047
:10498000D6D401B0704700BF012001B070470000CD
:1049900081B000220092009A01320092009AB2F196
:1049A000706F51D80269002A1ED4009A0132009219
:1049B000009AB2F1706F47D80269002A14D4009AA5
:1049C00001320092009AB2F1706F3DD80269002A5C
:1049D0000AD4009A01320092009AB2F1706F33D873
:1049E0000269B2F1FF3FD6DC89010022203100923A
:1049F00001610099013100910099B1F1706F23D8E4
:104A0000016989061DD50099013100910099B1F124
:104A1000706F19D80169890613D500990131009189
:104A20000099B1F1706F0FD80169890609D5009915
:104A3000013100910099B1F1706F05D801698906C3
:104A4000D7D4002001B07047032001B070470000A8
:104A5000D0F8080800F0060180074FF0020058BFA8
:104A60000F20002908BF084670470000406900F089
:104A700001007047D0F81818D0F81C08084080B220
:104A800070470000D0F81818D0F81C080840000C37
:104A900070470000D0F810C8D0F8343801F00F0289
:104AA00023FA02F2D20100EB4110D2B2D0F8080989
:104AB00042EA0C010840704700EB4111D1F8081B95
:104AC000D0F8140808407047416980690840704771
:104AD00010B5930802F0030E2CD05A1E032A03F0DF
:104AE000030C0FD323F003034FF480528458043B8C
:104AF0000C6084584C6084588C608458CC6001F100
:104B00001001F3D1BCF1000F14D04FF4805284583F
:104B10000B46BCF1010F43F8044B05D11946BEF119
:104B2000000F0AD11EE000BF8258BCF1020F4A609C
:104B30001AD10831BEF1000F14D04FF480528058C2
:104B40000A46BEF1010F02F8010B04BF104610BD6A
:104B5000020ABEF1020F4A7004BF881C10BD000C8F
:104B600088700331084610BD4FF4805282588A6025
:104B70000C31BEF1000FE0D1F4E700000246D0F89E
:104B8000000801F07F0120F4FE60C2F80008D2F8AE
:104B9000000840EA01110020C2F800187047000028
:104BA000022A02465FD145F24030CFF6277043F229
:104BB00000530844C0F20C03984203D24FF47050E3
:104BC00053E000BF41F64060CFF61B7044F2402333
:104BD0000844C0F20F03984202D24FF4605044E000
:104BE000A1F5740044F68073A0F51050C0F21203D2
:104BF000984203D24FF4505037E000BFA1F18370C8
:104C00004DF22063A0F5E740C0F21303984203D2AF
:104C10004FF4405029E000BF4BF26060CFF6E560F2
:104C20004EF260330844C0F21603984202D24FF4A9
:104C300030501AE04DF20030CFF6CE6047F24073AC
:104C40000844C0F21B03984202D24FF420500CE0FB
:104C500045F6C030CFF6B36049F2C0130844C0F245
:104C6000210398420AD24FF41050D16821F47051B8
:104C7000D160D16801430020D1607047A1F1B770C5
:104C800047F22053A0F55850C0F23803984203D29F
:104C90004FF40050E9E700BF45F2E040CFF659601D
:104CA00049F6E0430144C0F241034FF4C050994239
:104CB00038BF4FF4E050D8E710B5DDF808C0BCF1BC
:104CC000000F2CD15BB303F1030E4FF0FF3303EB66
:104CD0009E0300F580541203032BCEF3810C0FD3F7
:104CE0004FEA9E0323F003030868043B1051486811
:104CF000105188681051C86801F110011051F3D1AA
:104D0000BCF1000F0BD00868BCF1010FA05006D019
:104D10004868BCF1020FA0501CBF8868A05000205A
:104D200010BD0000FEE700002DE9F04FADF63C4D50
:104D3000039000208846CDF81C0807A84FF40061B6
:104D4000FBF78EFA0DF63207F81C059042F20F7948
:104D50000DF637460DF6384400214FF0000B0020C9
:104D600006905FFA81FA04910025FCF7C5F9CDF8A9
:104D7000380C00BFFCF7C0F9DDF8381C401A484574
:104D800000F292803046012100F082FE0128F1D12C
:104D90009DF8370C042819D115208DF8380C2046C1
:104DA000012100F07DFEFCF7A7F9CDF8380C00BF1B
:104DB000FCF7A2F9DDF8381C401A4845D5D838462A
:104DC000012100F065FE0128F2D1EDE117281FDD79
:104DD000612800F05B82412800F05882182863D1D6
:104DE000FCF78AF942F21074CDF8380CFCF784F91C
:104DF000DDF8381C401AA04256D23046012100F09E
:104E000047FE0128F2D19DF8370C18284CD107E253
:104E1000012807D0022847D1CDF808804FF48061DF
:104E2000022003E080210120CDF808808DF83208AF
:104E300041F0050001240091019007EB0408FCF704
:104E40005BF9CDF8380C00BFFCF756F9DDF8381CDB
:104E5000401A484525D84046012100F019FE012896
:104E6000F2D1019801348442E7D19DF834089DF8CD
:104E7000334880F0FF00DDF80880844214D10099A7
:104E800041F0030041F00402385CBA5C42EA0028B9
:104E90000598FBF729FA804514D00FF21C4001F069
:104EA000EDF8DDF8088000BF5D44062D80F2A48196
:104EB00043200DF638448DF8380C2046012100F0CF
:104EC000EFFD52E7DDF8088054450DD00FF2F430C5
:104ED00001F0D4F815200DF638448DF8380C204632
:104EE000012100F0DDFD3FE70498012828D0049857
:104EF000002860D19DF83528002A00F05981002152
:104F00007818037940F28C05002BC2F200056A5430
:104F100000F0848042790D44002A6B7000F082809A
:104F20008479CB1C002CAA7000F08080C2790431F7
:104F3000EC700AB13F2BE3D37818023078E000BF61
:104F40000298007A012812D102999DF8390809794E
:104F500088420CD102999DF83A084979884206D1D5
:104F600002999DF83B088979884200F08981D8A090
:104F700001F084F89DF83918DFA000F027FE9DF8B5
:104F80003A18E4A000F022FE9DF83B18E8A000F0DB
:104F90001DFE4CF200040020C0F600048DF83D0810
:104FA000204600F0D3F904F5804000F0CFF904F575
:104FB000A03000F0CBF9009C0DF11C08059940468B
:104FC0002246FBF734F9069A0398DDF81C18A51859
:104FD00010448D4288BF8C1A4146224600F026FAC2
:104FE000DDF81C1864228D4228BF0D466A43B2FBCF
:104FF000F1F1044646F2DB00C0F6000000F0E6FDE9
:10500000002C40F0118106208DF8380C0DF6384048
:10501000012100F045FD0695BCE000BF03300131E1
:1050200006E000BF0430023102E000BF053019463F
:10503000837840F28C050022202BC2F200056A54CE
:1050400077D0C1788DF82238202901D1012270E073
:1050500002798DF82318202A02D1022269E000BFCC
:1050600041798DF82428202902D1032261E000BF74
:1050700082798DF82518202A02D1042259E000BF38
:10508000C1798DF82628202902D1052251E000BFE0
:10509000027A8DF82718202A02D1062249E000BFA3
:1050A000417A8DF82828202902D1072241E000BF4B
:1050B000827A8DF82918202A02D1082239E000BF0F
:1050C000C17A8DF82A28202902D1092231E000BFB7
:1050D000027B8DF82B18202A02D10A2229E000BF7A
:1050E000417B8DF82C28202902D10B2221E000BF22
:1050F000827B8DF82D18202A02D10C2219E000BFE6
:10510000C17B8DF82E28202902D10D2211E000BF8D
:10511000027C8DF82F18202A02D10E2209E000BF50
:10512000407C8DF8302820281ABF8DF831081022D5
:105130000F2200200DF62204A05446F2E90040F2AE
:105140008C01C0F60000C2F2000100F03FFD46F203
:10515000F700C0F60000214600F038FD20460DF6AD
:105160001C01FDF725FFDDF81C080221C0F2040137
:1051700088426FDA06200DF638448DF8380C204648
:10518000012100F08DFC43208DF8380C20460121D0
:1051900000F086FC0499DDF8088001314FF0010B26
:1051A0000DF63844DDE500BF9DF8320804280DD126
:1051B00006208DF8380C0DF63840012100F070FC07
:1051C00006980DF63C4DBDE8F08F00BF18240DF693
:1051D000384001218DF8384C00F062FC0DF6384063
:1051E00001218DF8384C00F05BFC6FF003000DF6E8
:1051F0003C4DBDE8F08F00BF18240DF6384001216A
:105200008DF8384C00F04CFC8DF8384C0DF63840D9
:10521000012100F045FC00200DF63C4DBDE8F08F6B
:1052200006208DF8380CF1E718240DF638400121DE
:105230008DF8384C00F034FC0DF6384001218DF823
:10524000384C00F02DFC6FF004000DF63C4DBDE82D
:10525000F08F00BF18240DF6384001218DF8384C2E
:1052600000F01EFC0DF6384001218DF8384C00F09E
:1052700017FC4FF0FF300DF63C4DBDE8F08F00BF3E
:1052800046F20510C0F6000000F0F8FE18240DF6F6
:10529000384001218DF8384C00F002FC0DF6384002
:1052A00001218DF8384C00F0FBFB6FF002000DF689
:1052B0003C4DBDE8F08F00BF637263206572726F72
:1052C000720D0000736571206572726F720D0000BF
:1052D00073656E6420646966666572656E742076B7
:1052E000657273696F6E2073746172742075706774
:1052F000726164650D00000073656E64206D616A03
:105300006F725F76657273696F6E203A2025640A4A
:105310000000000073656E64206D696E6F725F76C9
:10532000657273696F6E203A2025640A00000000E0
:1053300073656E642070617463685F76657273690B
:105340006F6E203A2025640A00000000B0B586B0D8
:10535000002504460095FBF703FD43F6FF7024EAA1
:10536000000000F17840B0F5803F01D2800B12E0E0
:1053700040F60100B0EB144F02D104200BE000BF57
:105380000020C0F601006FF3100400F5803100200A
:105390008C4208BF0520022105910121CDE90210B0
:1053A000049101A869460195FBF77AFB0446FBF7D7
:1053B0003DFC204606B0B0BD4FF0010C9AB380B55D
:1053C000002302EB000EC0F604039E4529D8531EAD
:1053D000032B02F0030C13D322F0030210F8043B5A
:1053E000043A01F8043B10F8033C01F8033C10F8C0
:1053F000023C01F8023C10F8013C01F8013CEDD1FF
:10540000BCF1000F0BD00278BCF1010F0A7006D07E
:105410004278BCF1020F4A701CBF807888704FF050
:10542000000CBDE880406046704700002DE9F04F59
:1054300089B014460022C0F601020546204402F558
:105440004032904204D9012009B0BDE8F08F00BF7E
:10545000002C66D063424FF0000A01272A460E4610
:10546000084600910193A4EB0A00029703EB0A0B94
:10547000A0F1010E0027D35DF15D8B4224D1BE4522
:105480004CD006EB070802EB070C9CF8013098F8AB
:1054900001108B421ED10BEB070919F102013DD01F
:1054A0009CF8023098F802108B421BD119F10301CD
:1054B00034D09CF8033098F803108B421AD104378B
:1054C000B842D8D12AE000BF0AEB0700D11937440F
:1054D00017E000BF0AEB070001300CF1010108F1F1
:1054E00001070EE00AEB070002300CF1020108F19F
:1054F000020706E00AEB070003300CF1030108F194
:105500000307FF2B30D100F1010A019B4A1C7E1CCE
:10551000A2454FF00007A6D108E000BF0298C007DF
:1055200004D0002009B0BDE8F08F00BF012080F357
:105530001088FBF715FC012C98BF01240098461E2B
:1055400016F8012F0020294600236F1CFBF778FB7B
:10555000013C3D46F4D1FBF769FB002080F3108845
:1055600009B0BDE8F08F00BF012686F31088002740
:105570000397FBF7F5FB43F6FF7025EA000000F107
:105580007840B0F5803F01D2800B14E04FF6FF70F9
:10559000002225EA0000C0F60102904202D1042058
:1055A00009E000BF29466FF3100102F580320020A8
:1055B000914208BF05200221CDE90560CDE90761D0
:1055C00004A803A90497FBF76BFAFBF72FFBB0E7DE
:1055D00041F20001C4F20101486003E00A6852068A
:1055E00048BF70470A68520606D40A6852065CBF74
:1055F0000A685FEA4262F1D57047000084B044F265
:105600000048C4F20008FBF78BFDFDF7BDFF002644
:1056100043F630000296C4F202000168002241F015
:1056200080010160016801F08001029102990196F8
:10563000016841F001010160016801F0010101917F
:1056400001990396016841F400110160006800218E
:1056500000F40010039003981020FBF7E5FD1020E4
:10566000FBF7D0FD40F21009C2F20009484640F8AD
:10567000348F4FF4E1370C25C0E90176C0E90366A9
:10568000C0E90556C661FDF783FB18B172B600BFCD
:10569000FEE700BF41F63C21C2F2000148464FF44C
:1056A000805200F071F909F1340440F63C21C2F255
:1056B000000120464FF48052FCF786FF40F6D410DC
:1056C00008F54C41C2F20000C0E90017C0E90266CB
:1056D000C0E90465C0E90666FDF75AFB10B172B671
:1056E000FEE700BF48F20008C0F6000809F1140701
:1056F000404639462022FFF75FFE002840F09280A6
:1057000079A000F063FA46F2D50699F81410C0F6B5
:105710000006304600F05AFA99F81510304600F0AD
:1057200055FA99F81610304600F050FA99F817100B
:10573000304600F04BFA0A2000F09AFC99F8181055
:105740006CA000F043FA99F819106FA000F03EFA2F
:1057500099F81A1071A000F039FA99F81B1074A08A
:1057600000F034FA99F81C1076A000F02FFAD9F85E
:10577000201079A000F02AFA7BA000F027FA99F80F
:105780002410304600F022FA99F82510304600F037
:105790001DFA99F82610304600F018FA99F82710EB
:1057A000304600F013FA99F82810304600F00EFA4F
:1057B00099F82910304600F009FA99F82A10304675
:1057C00000F004FA99F82B10304600F0FFF999F830
:1057D0002C10304600F0FAF999F82D10304600F000
:1057E000F5F999F82E10304600F0F0F999F82F10DD
:1057F000304600F0EBF999F83010304600F0E6F949
:1058000099F83110304600F0E1F999F8321030463D
:1058100000F0DCF999F83310304600F0D7F90A208F
:1058200000F026FC40463946FFF77EFA014650A0BC
:1058300000F0CCF92046FCF7EBFF232808D100BF8D
:105840000120FBF719F92046FCF7E2FF2328F7D0E7
:105850004CF200052046C0F60005FCF7BBFF012016
:1058600080F31088FCF7CAFB4EF21000CEF2000065
:1058700000214FF0FF32016041608160C0F870216B
:10588000C0F87022C0F87421C0F87422C0F87821E2
:10589000C0F87822C0F87C21C0F87C22C0F88021B2
:1058A000C0F88022C0F88421C0F88422C0F8882182
:1058B000C0F88822C0F88C21C0F88C2281F31088AF
:1058C000D5E9000280F3088881F31488BFF36F8F55
:1058D000904746F2C004C0F6000400BF20462946A7
:1058E00000F074F9FAE700BF6D61676963203A2040
:1058F000000000006D616A6F725F76657273696F98
:105900006E203A2025640A006D696E6F725F7665BD
:105910007273696F6E203A2025640A0070617463A7
:10592000685F76657273696F6E203A2025640A009D
:10593000626F6172645F74797065203A2025640A31
:105940000000000069735F757067726164656420B0
:105950003A2025640A00000066696C655F6C656E1C
:10596000203A2025640A00006D6435203A200000AA
:1059700023232320796D6F64656D203A20256420F0
:105980002323230A00000000844600284FF0FF3044
:1059900018BF002900D1704710B54FF0553303EA06
:1059A0005203A2EB030E4FF0333303EA9E042EF0B2
:1059B000CC33234403EB131323F0F0334FF00134C3
:1059C00063431B0E012BBDE8104018BF7047002039
:1059D000CCE90010CCF80800ACF80C2070470000AF
:1059E000F0B581B020B30E464FF00004E1B105469A
:1059F0000068C8B1D5E90113CC1AA989A24238BF01
:105A000014464A1E1A408F1ABC4238BF27468118D6
:105A100030463A46FAF70BFC2968F019E21BFAF710
:105A200006FCA8682044A860204601B0F0BD00BF75
:105A30000024204601B0F0BDF0B581B020B30E4681
:105A40004FF00004E9B105460068D0B1A989D5E955
:105A50000137CC1A3C44A24238BF14464A1E1A40B1
:105A60008F1ABC4238BF2746104431463A46FAF7EF
:105A7000DEFB2868F119E21BFAF7D9FB68682044BD
:105A80006860204601B0F0BD0024204601B0F0BDA2
:105A90000A46014640F21000C2F20000FFF7A0BF24
:105AA000002945D010B544F20042C4F20002042996
:105AB00001F0030C3ED20021BCF1000F36D0136878
:105AC0005B0609D413685B065CBF13685FEA436337
:105AD00002D413685B06F2D5435CBCF1010F53603E
